:020000040800F2
:10000000E86D002471030008199900086583000851
:1000100015980008B90C0008C5C0000800000000D1
:10002000000000000000000000000000B102000815
:10003000F5120008000000000D0300082DA50008BF
:100040008B0300088B0300088B0300088B03000858
:100050008B0300088B0300088B0300088B03000848
:100060008B0300088B0300088B030008110E0008A7
:100070008B0300081D0E0008290E0008350E00082D
:10008000410E00084D0E00088B0300088D13000878
:100090008B0300088B0300088B0300088B03000808
:1000A0008B03000835A700088B0300088B030008AA
:1000B0008B0300088B0300088B0300088B030008E8
:1000C0008B0300088B0300088B0300088B030008D8
:1000D0008B0300088B0300088B030008B9C00008DD
:1000E0008B030008799D0008000000008B030008C6
:1000F0008B0300088B0300088B0300088B030008A8
:100100008B0300088B0300088B0300088B03000897
:10011000DDB00008E9B000088B0300088B0300087D
:10012000590E00088B0300088B0300088B0300089E
:100130008B0300088B0300088B0300088B03000867
:1001400000000000000000000000000000000000AF
:100150008B0300088B0300088B0300088B03000847
:100160008B0300088B0300088B0300088B03000837
:100170008B0300088B0300088B03000800000000BD
:100180008B0300088B030008F5B0000811B10008CC
:100190008B0300088B0300088B0300088B03000807
:1001A0008B0300088B0300088B0300088B030008F7
:1001B0008B0300088B0300088B0300088B030008E7
:1001C0008B0300088B0300088B0300088B030008D7
:1001D0008B0300088B0300088B0300088B030008C7
:1001E0008B0300088B0300088B0300088B030008B7
:1001F0008B0300088B0300088B0300088B030008A7
:100200008B0300088B0300088B0300088B03000896
:100210008B0300088B03000829A700088B03000844
:100220008B0300088B0300088B030008000000000C
:100230008B0300088B030008000000008B030008FC
:100240008B0300088B0300088B0300088B03000856
:100250008B0300088B0300088B0300088B03000846
:100260008B0300088B0300088B0300088B03000836
:100270008B0300088B0300088B03000800000000BC
:100280008B0300088B0300088B03000800000000AC
:10029000000000008B030008DFF810D000F0DEFA49
:1002A0000048004721CE0008AFF30080E86D00242D
:1002B0002C4B19680868B0E8F04F80F30988BFF349
:1002C0006F8F4FF0000080F311887047000000002E
:1002D00008480068006880F308884FF0000080F349
:1002E000148862B661B6BFF34F8FBFF36F8F00DF24
:1002F00000BF00BF08ED00E0DFF80C00016841F42A
:1003000070010160704700BF88ED00E0EFF30980E5
:10031000BFF36F8F134B1A681EF0100F08BF20ED4C
:10032000108A20E9F04F106009B44FF0500080F3BC
:100330001188BFF34F8FBFF36F8F0DF041FF4FF068
:10034000000080F3118809BC19680868B0E8F04F14
:100350001EF0100F08BFB0EC108A80F30988BFF3BD
:100360006F8F7047A0020024EFF3058070470000F4
:100370000648804706480047FEE7FEE7FEE7FEE73F
:10038000FEE7FEE7FEE7FEE7FEE7FEE74DA6000814
:10039000990200082DE9F05F0546002092469B4631
:1003A00088460646814640241BE02846414647468B
:1003B000224600F08BF853465A46C01A914110D39A
:1003C00011461846224600F016F82D1A67EB010870
:1003D0004F4622460120002100F00DF817EB0009DE
:1003E0004E41201EA4F10104DFDC484631462A4676
:1003F0004346BDE8F09F202A04DB203A00FA02F1D0
:10040000002070479140C2F1200320FA03F3194302
:1004100090407047202A06DBCB17203A41FA02F0C1
:1004200043EAE07306E041FA02F3D040C2F1200251
:10043000914008431946704740EA01039B0703D0E7
:1004400009E008C9121F08C0042AFAD203E011F813
:10045000013B00F8013B521EF9D27047D2B201E0D5
:1004600000F8012B491EFBD270470022F6E710B5B9
:1004700013460A4604461946FFF7F0FF204610BD12
:10048000421C10F8011B0029FBD1801A704703465B
:1004900011F8012B00F8012B002AF9D118467047FA
:1004A00030B50B46014600202022012409E021FA44
:1004B00002F59D4205D303FA02F5491B04FA02F541
:1004C0002844151EA2F10102F1DC30BD202A04DB14
:1004D000203A21FA02F00021704721FA02F3D040BD
:1004E000C2F1200291400843194670472DE9FE4FA2
:1004F000804681EA0300C00F0C46009021F00041C5
:1005000023F00045B8EB0200A94105D24046214640
:1005100090461C460B46024623F00040104347D04D
:10052000270DC7F30A00C3F30A510290401A019045
:1005300040286BDAC3F3130040F4801B0098924606
:1005400020B10023D2EB030A63EB0B0B0198594651
:10055000C0F140025046FFF74EFF06460D4650469A
:100560005946019AFFF756FF10EB0800614100243D
:1005700087EA115284EAE7731A4340D0009A62B3C3
:10058000019A012A4FEA075215DC001B61EB0201B8
:100590004FF0004202EA0752CDE90042001C41F54B
:1005A000801132462B4600F07AF903B0BDE8F08F97
:1005B00040462146F9E7001B61EB0201001C41F5B2
:1005C000801300185B412018A2F5001747EB0301C8
:1005D00040EAD570B6196D4111E06D084FEA360654
:1005E00045EAC0754FEA0752001B61EB0201001C8F
:1005F00041F5801149084FEA300000195141324657
:100600002B4603B0BDE8F04F00F03AB90098012244
:1006100040000023D0EB020263EBE0730098214618
:100620004FEAE074B8EB000061EB0401E9E783F006
:1006300000435BE781F0004158E72DE9FE4F81EA76
:10064000030404F0004421F0004100944FF0000B3B
:1006500023F0004350EA01045ED052EA03045BD069
:10066000C3F30A54C1F30A552C44A4F2F3340194A1
:10067000A0FB0254C1F3130141F48011C3F313032F
:1006800043F4801301FB024400FB034E840A970AE3
:1006900044EA815447EA8357A4FB076802958D0A10
:1006A00005FB07854FEA932C04FB0C542705029D9C
:1006B0004FEA065847EA1637B5EB08056EEB070C0C
:1006C000870E920E47EA811742EA8312A7FB0201C6
:1006D000B6EB0B0164EB00042B0D43EA0C335E1800
:1006E00044EB1C50DA465146E7FB0201C5F3130404
:1006F0004FEA0B3343EA14534FEA0432019C43EAB6
:100700000603A4F10C040294009CCDE900B400F0AF
:10071000C6F803B0BDE8F08F00200146F9E72DE9E7
:10072000F04D81EA030404F0004B21F0004514462B
:100730004FF0000A23F0004150EA050220D054EAAD
:1007400001021DD0C5F30A570246C5F31303C1F3D6
:100750001300C1F30A5640F4801543F48013A7EB4D
:100760000608101BD64608F2FD3873EB050002D3CD
:1007700008F1010801E092185B41B8F1000F03DABB
:1007800000200146BDE8F08D00204FF480110646A0
:1007900084460EE0171B73EB050705D3121B63EBB2
:1007A000050306434CEA010C49084FEA3000921851
:1007B0005B4150EA0107EDD152EA030012D082EA10
:1007C000040083EA0501084305D0101BAB4106D2A3
:1007D0000122002306E000224FF0004302E06FF008
:1007E000010253101AEB06004CEB085110EB0A0003
:1007F00041EB0B01BDE8F04D00F042B8C1F30A52E5
:10080000C1F3130140F2FF3341F480119A4202DA3E
:1008100000200146704740F233439A42A2F233422D
:1008200002DC5242FFF752BEFFF7E5BD30B5041EB1
:1008300071F1000404DB4FF00044404264EB01011D
:10084000141E73F1000405DB1C464FF000435242B6
:1008500063EB0403994208BF904230BD064C074D3C
:1008600006E0E06840F0010394E807009847103480
:10087000AC42F6D3FFF714FD7CF500089CF50008A8
:1008800010B5141E73F1000408DA401C41F1000198
:1008900092185B411A4301D120F0010010BD2DE9EF
:1008A000F04D92469B4611B1B1FA81F202E0B0FAE6
:1008B00080F220329046FFF79EFD04460F4640EA44
:1008C0000A0041EA0B0153465A46084313D0114629
:1008D00053EA010019D0C8F140025046FFF7F6FD77
:1008E00005460E46504659464246FFF784FD0843EA
:1008F00005D0012004E020463946BDE8F08D0020F7
:10090000054346EAE0762C4337430A986305E40A38
:10091000A0EB08000022FD0A44EA47540A3002D541
:1009200000200146E9E7010510196941DDE90845A4
:1009300000196941BDE8F04DA2E770B58C1810F8B8
:10094000015B15F0070301D110F8013B2A1106D114
:1009500010F8012B03E010F8016B01F8016B5B1E2E
:10096000F9D12B0705D40023521E0DD401F8013B09
:10097000FAE710F8013BCB1A921C03E013F8015B75
:1009800001F8015B521EF9D5A142D8D3002070BDF9
:1009900070B5054641492868884202D0404A9042D5
:1009A00005D1D1F8080310F4403F05D118E03D48C7
:1009B000006810F4403F13D005F09CFC04466868C2
:1009C000B0F5803F06D0B0F5003F03D0B0F5403F12
:1009D00029D103E0000CB4FBF0F424E0A40822E0E9
:1009E00000214FF4002004F01DFB044668688103D9
:1009F000890B18D181140C2915D2DFE801F01406F7
:100A000006060606060B0D0F1113800C4000B4FB02
:100A1000F0F408E0240906E0640904E0A40902E017
:100A2000E40900E0240A03F0F3FC41F203018842E8
:100A30000ED81D48844205D92868816841F4807128
:100A4000816070BD2868816821F48071816070BD0B
:100A500060081649884205D82868816821F44071E9
:100A6000816070BD1249884207D82868816821F4E6
:100A7000407141F48071816070BD0E49884207D891
:100A80002868816821F4407141F40071816070BD73
:100A90002868816841F44071816070BD0020024087
:100AA0000021024008630258002D3101105E5F00F2
:100AB00020BCBE0040787D0110B5846B616D11F0E3
:100AC000500F06D0616DC90630D5204601F0CAF836
:100AD00010BD606D40F40070606520680168090712
:100AE00012D508F08BF8E8B12068C068800419D4EA
:100AF000606D20F480706065606DC00412D4606D1C
:100B000040F0010060650DE0C06880070AD1606DAB
:100B100020F480706065606DC00403D4606D40F0A7
:100B200001006065204601F071F810BDE16CC96CF0
:100B3000BDE81040084710B5806B416D41F04001A1
:100B40004165816D41F00401816501F08BF810BDB4
:100B500010B5806B01F070F810BD000070B5044650
:100B600020688168C1F3400508F03CF878B375BB94
:100B70002068816801F00D01012909D0606D40F005
:100B800010006065A06D40F00100A065012070BDFF
:100B90008168124A1140891C816021680320086025
:100BA00003F03CFC054613E003F038FC401B022830
:100BB0000ED920688068C0070AD0606D40F0100030
:100BC0006065A06D40F00100A065012070BD03E0EC
:100BD00020688068C007E7D10020F7E7C0FFFF7FEB
:100BE00070B50446206807F0FDFF50BB206881689F
:100BF000264A114209D0606D40F010006065A06D7A
:100C000040F00100A065012070BD81681F4E7F3E4D
:100C10003140491C816003F001FC05461C492068F5
:100C20001C4B884201D0984201D11B4A00E01B4A6C
:100C3000926802F01F02984200D0014681421DD006
:100C4000E2B120E007F0CEFF20B920688168314092
:100C5000491C816003F0E2FB401B02280ED920688A
:100C60000068C043C00709D0606D40F010006065A7
:100C7000A06D40F00100A065012070BD20680168F2
:100C8000C943C907DED1002070BD00003F000080CD
:100C9000002002400021024000230240006302586D
:100CA000DFED040A80EE201ABDEEC10A10EE100A34
:100CB00000B270470000843BFEE700001346084A7C
:100CC0001060002050609060D360106150619061AE
:100CD000D06110620A46024901F14C0002F012BDD7
:100CE000CC2000240148042103F083BB00100258EB
:100CF00030B500230322084D09E0845C84EA132404
:100D000035F8144084EA03239BB2521C92B28A4203
:100D1000F3D3D8B230BD0000E4EF000810B50022D4
:100D2000134B0DE036280ED0392811D03C2814D0B2
:100D30003F2817D01C7844F080041C70401C521CC3
:100D40008A42EFD310BD1C7844F001041C70F5E713
:100D50001C7844F002041C70F0E71C7844F008048E
:100D60001C70EBE71C7844F004041C70E6E70000FC
:100D7000880100242DE9F047162500241C4EDFF8D9
:100D80006C90A046A6F1280759F82400010E317096
:100D9000010C7170010AB170F070042214492846E8
:100DA00008F01AF82D1DADB2C7F82880641CE4B213
:100DB000042CE9D326250024DFF8389059F82410B4
:100DC000080E3070080C7070080AB070F1700422C0
:100DD0000749284608F000F82D1DADB2C7F8288055
:100DE000641CE4B2042CE9D3BDE8F0876C03002452
:100DF000B00100249C03002400EE100ADFED030A7A
:100E0000B8EEC00A20EE200A704700000000843BC4
:100E1000014801F0EDBC000030200024014801F041
:100E2000E7BC0000AC260024014801F0E1BC000052
:100E30008C280024014801F0DBBC0000242700249A
:100E4000014801F0D5BC000004290024014801F04C
:100E5000CFBC00009C270024014801F0C9BC000061
:100E60001428002410B52C4A016891423AD02A4A2D
:100E70001832914236D0284A3032914232D0264A36
:100E8000483291422ED0244A603291422AD0224ADE
:100E90007832914226D0204A9032914222D01E4A86
:100EA000A83291421ED01D4A91421BD01B4A1832D3
:100EB000914217D0194A3032914213D0174A483222
:100EC00091420FD0154A603291420BD0134A7832CA
:100ED000914207D0114A9032914203D00F4AA83272
:100EE000914214D1CAB2103A1823B2FBF3F20C4C5F
:100EF00002F00703E35CC365032A04D96FF3090119
:100F0000091D816506E06FF30901816502E021F0AA
:100F1000FF018165806D10BD100002401004024089
:100F2000A0F4000810B501680123224CCAB2A14206
:100F30001BD0204C1434A14217D01E4C2834A1429F
:100F400013D01C4C3C34A1420FD01A4C5034A14257
:100F50000BD0184C6434A14207D0164C7834A1420F
:100F600003D0144C8C34A1420FD1083A1421B2FBA7
:100F7000F1F1114A02EB810202660F4A80324266A9
:100F800001F01F018B40836610BD103A1824B2FB9C
:100F9000F4F20A4C2144A82900D80832084901EB90
:100FA0008201016606498031416602F01F018B40D3
:100FB000836610BD0854025800580258F0FBFDBF6C
:100FC000000802400279521E072A31D8194B0168E5
:100FD00099421BD0174B1433994217D0154B283325
:100FE000994213D0134B3C3399420FD0114B5033DD
:100FF00099420BD00F4B6433994207D00D4B783395
:10100000994203D00B4B8C33994207D10A4901EB2B
:101010008201C16608494031016706E0074901EBDA
:101020008201C16605494031016701219140416754
:101030007047000008540258005902580009024045
:10104000014610B500208B694FF0C0748A6A002BEE
:101050000ED0B3F5005F1AD062B3012A2AD0022A5B
:1010600028D0032A03D1C96AC90100D5012010BDC7
:101070001AB1012A06D0022AF9D1C96AC901F6D5E6
:10108000012010BDC96AA142FBD1012010BD52B19F
:10109000012A0AD0022A06D0032AF7D1C96AA1423E
:1010A000F4D1012010BD012010BDC96AC901FBD5D2
:1010B000012010BD012010BD2DE9F04F856D8A4E35
:1010C000894FDFF824C2A836DFF81C82DFF81892B7
:1010D0000CF1180CDFF810A208F13008DFF808B2A4
:1010E00009F1480904680AF1600A0BF1780BBC4267
:1010F0006DD064456BD0444569D04C4567D05445AC
:1011000065D05C4563D0DFF8E0E10EF1900E7445E8
:101110005DD0B4425BD0DFF8D4E1744557D0DFF83E
:10112000CCE10EF1180E744551D0DFF8C0E10EF19C
:10113000300E74454BD0DFF8B4E10EF1480E744523
:1011400045D0DFF8A8E10EF1600E74453FD0DFF81E
:101150009CE10EF1780E744539D0DFF890E10EF184
:10116000900E744533D0DFF884E10EF1A80E74457B
:101170002DD0DFF87CE1744529D0DFF874E10EF161
:10118000140E744523D0DFF868E10EF1280E744583
:101190001DD0DFF85CE10EF13C0E744517D0DFF88E
:1011A00050E10EF1500E744511D0DFF844E10EF11C
:1011B000640E74450BD0DFF838E10EF1780E7445FB
:1011C00005D0DFF82CE10EF18C0E744509D1D0E981
:1011D00019E4CEF80440C46E1CB1D0E91CE4CEF88A
:1011E00004400468BC422ED064452CD044452AD02B
:1011F0004C4528D0544526D05C4524D03A4F9037F2
:10120000BC4220D0B4421ED0384EB4421BD0374E20
:101210001836B44217D0354E3036B44213D0334E60
:101220004836B4420FD0314E6036B4420BD02F4E08
:101230007836B44207D02D4E9036B44203D02B4EB0
:10124000A836B4421BD190F85C4004F01F063F243E
:10125000B440AC600468256825F4802525600468E6
:1012600063608368402B05D0036899600068C260A2
:10127000BDE8F08F03689A600068C160F8E71C4E13
:10128000B4421BD01A4E1436B44217D0184E28362A
:10129000B44213D0164E3C36B4420FD0144E5036E2
:1012A000B4420BD0124E6436B44207D0104E78369A
:1012B000B44203D00E4E8C36B442D9D190F85C4083
:1012C00004F01F060124B4406C6004686360836806
:1012D000402B04D0036899600068C260C8E70368C7
:1012E0009A600068C160C3E7100002401004024029
:1012F0000854025870470BF0CFBE72B6FEE70000EC
:1013000030B589B00024019402940394012504951A
:10131000059440F2FF70069001A91B4802F053FAB1
:10132000A8070190029403200390049505946FF0A0
:101330007E40069001A9144802F045FA12480222A4
:10134000012102F016FA02220F48012311460095EE
:1013500002F07DFA0C480022012102F091F90A48BE
:101360000022690602F08CF907480022416AC06A2F
:101370004143054802F083FA034802F091FA02481B
:1013800002F0FBFE09B030BD18210024014802F034
:1013900077BB00001821002430B5426B036853F876
:1013A000844F4FF6FC718C4344EA82041C6003684E
:1013B00053F8844F058F24F47F0444EA05441C60ED
:1013C000836B1A44036853F8884F8C4344EA8204C1
:1013D0001C60036853F8884F858F24F4FE0444EAA8
:1013E00005441C60C36B02EB4302036853F8A04F33
:1013F0008C4344EA82041C60036853F8A04FB0F8A1
:10140000405024F4FE0444EA05441C60D0E9103442
:1014100003FB0422036853F8B04F8C4344EA820470
:101420001C60036853F8B04FB0F8485024F4FE0431
:1014300044EA05441C60D0E9123403FB042203682B
:1014400053F8AC4F8C4344EA82041C60D0E9143456
:1014500003FB0422036853F8F04F8C4344EA8204F0
:101460001C60036853F8F04FB0F8585024F47C1413
:1014700044EA05441C60836D02EB4303026852F8A2
:10148000C04F8C4344EA83011160016851F8C02FBA
:10149000B0F85C3022F47C1242EA03420A60016830
:1014A00051F8C02F90F8603022F07C5242EA03627B
:1014B0000A60416B224A02EB8101C166826B01EB3B
:1014C00082020267C36B02EBC3024267D0E91034A9
:1014D000634302EB83028267D0E91234634302EB79
:1014E0008302C267D0E91434634302EB8302C0F87D
:1014F0008020836D02EBC302C0F88420C46D836E2C
:101500005C4302EB8402C0F88820046E5C4302EB6B
:101510008402C0F890200B4B9A4208D99830416859
:1015200041F02001416003210170012030BD002203
:1015300000E004C1D0F890308B42FAD8002030BDD2
:1015400000AC0040FCD30040F0B5D1E901650C6966
:101550002C430D68002E1AD045F080452C4391F89D
:101560002070D1E9066535434E6946EA0766354382
:101570008E8945EA0645D0F88460806E584306EBB4
:1015800080031C605D60083300200B4E0FE044EACE
:101590008544E4E71418155CE77845EA0765A77801
:1015A00064783F0447EA0424254320C3001DCC6827
:1015B000345D8442EED8F0BDA8F4000810B5194996
:1015C0000022194805F048FB18490022164805F08A
:1015D00021FB1449184891ED010AF8EE400A91EDFB
:1015E000020AB8EE400A80EE801AB7EEC10A9FEDFB
:1015F000101B20EE010BBCEEC00B10EE102AC281B6
:101600000A4B0E48DC7804705C7844709B788370D9
:101610000B78C3704B78037189784171110A81711D
:10162000C27110BD602200247422002488020024AC
:101630000000000000408F40880100248F0E00242D
:10164000F8B504460E4617460025009594F850005C
:10165000012810D0012084F850002046FFF77EFAC0
:101660000346180009D0606D40F01000606584F8F2
:1016700050501846F8BD0220F8BD606D20F4885027
:1016800040F002006065206806F4803107F0804277
:1016900011438268114E3240114341F00041816094
:1016A0000F4920680FE0009A521C0092009A8A426B
:1016B00009D3606D20F0020040F01000606584F8EE
:1016C00050500120F8BD8268D20F002AEBD1606D26
:1016D00020F0020040F001006065C8E7C0FFFE3F57
:1016E00000F8C3252DE9F0479AB004460D464FF0A7
:1016F000000894F8500001280DD0012084F8500013
:10170000002716971797DFF8F09020683B4E484562
:1017100005D1019604E002201AB0BDE8F0870197D8
:10172000019840B1019807F065FA8246206807F0F9
:1017300061FA40B10AE0606D40F02000606584F815
:1017400050700120E8E7BAF1000F09D0606D40F059
:10175000200060654FF0010884F850704046DBE7D8
:101760002068484501D0B04201D1254800E0254815
:1017700040F61F72244B296811B38168D5F804C064
:1017800021F4404141EA0C0181602168494501D0C2
:10179000B14208D1D9F80810C1F30001B368C3F30E
:1017A0000003194302E09968C1F300010029D3D175
:1017B000AB68296819438368934319438160CBE779
:1017C000816821F4404181602168494501D0B142DE
:1017D00008D1D9F80810C1F30001B368C3F30003BE
:1017E000194302E09968C1F300010029B4D181686E
:1017F00091438160B0E700000020024000210240D8
:101800000023024000630258006002582DE9FC5F8B
:1018100004460D464FF00009CB46CDF804B0DFF882
:10182000B8A3EE4EDFF8B88394F85000012811D029
:10183000012784F85070206807F0D8F960B1606D16
:1018400040F0200060654FF0010984F850B0484630
:10185000BDE8FC9F0220FBE7286800280DDB21681B
:10186000CA69030329D090FAA0F0B0FA80F000F022
:101870001F0007FA00F00243CA61A98820682A689D
:1018800001F4407300EB9310036B01F01F014FF064
:101890001F0CC2F384620CFA01FC8A4023EA0C0399
:1018A00013430363206807F0A1F90090206807F054
:1018B00095F90099014303D086E0C0F38460D6E730
:1018C000AA682968206807F0A1F9C6480068B7EB44
:1018D000107F07D121686869C968C1F38201490096
:1018E000884010E02168C868C00606D46869C968E5
:1018F000C1F382014900884005E06869C96801F0C8
:10190000100149088840296904292DD023682A68D4
:1019100003EB81010B6E02F0F842024303F0004337
:1019200013430B66697E20682A69012916D00021BD
:1019300000EB8200026E22F000420A430266297E1A
:1019400020682A6901290CD00021036902F01F02D6
:1019500023F4F04391400B43036135E04FF0004125
:10196000E6E74FF40061F0E72068016E2A7801F0A5
:10197000F841B1EB826F03D1016E21F000410166A5
:101980002068416E2A7801F0F841B1EB826F03D1F3
:10199000416E21F0004141662068816E2A7801F095
:1019A000F841B1EB826F03D1816E21F00041816675
:1019B0002068C16E2A7801F0F841B1EB826F03D143
:1019C000C16E21F00041C166206807F00BF90028C4
:1019D0007FF43BAF21682A7B286851F8C03FC0F3F1
:1019E000130C23EA0C0302F0180C7F4A22FA0CF2C3
:1019F000024013430B607D48E968814274D1286836
:101A0000010319D090FAA0F1B1FA81F1491C01F05B
:101A10001F01092931D80103002910D090FAA0F143
:101A2000B1FA81F101F1010101F01F0107FA01F79B
:101A300008D1C0F3846109E0C0F38461E6E7C0F334
:101A40008461EFE790FAA0F1B1FA81F101F10101AF
:101A500001F01F0147EA816102D1C0F3846003E015
:101A600090FAA0F0B0FA80F000F1010000F01F0041
:101A700000EB400041EA005132E04FEA003100291A
:101A80000DD090FAA0F1B1FA81F101F1010101F05C
:101A90001F0107FA01F705D1C0F3846106E0C0F326
:101AA0008461F2E790FAA0F1B1FA81F101F101014C
:101AB00001F01F0147EA816102D1C0F3846003E0B5
:101AC00090FAA0F0B0FA80F000F1010000F01F00E1
:101AD000A0F10A0000EB400041EA005040F0007124
:101AE000AA68206807F092F82A68002ABFF6ADAE0F
:101AF00020683F4B3F4F504501D0B04201D11946BD
:101B000000E03946896801F0E071504501D0B042EB
:101B10000AD1DAF80850C5F30005D6F808C0CCF3AE
:101B2000000C45EA0C0503E0D8F80850C5F30005A1
:101B300035B1606D40F0200060654FF0010984E62A
:101B40002D4DAA421FD10D021DD44045F7D150455D
:101B500002D0B04200D03B4641F40000996821F029
:101B6000E07101439960254825490068B0FBF1F018
:101B7000401C4000019002E00198401E0190019835
:101B80000028F9D161E61F4DAA4210D1CD010ED433
:101B90004045D4D1504502D0B04200D03B4641F040
:101BA0008070996821F0E071014399604DE6164D0F
:101BB000AA42C4D14A02C2D44045C0D1504502D045
:101BC000B04200D03B4641F48000996821F0E071BA
:101BD0000143996039E600000020024000210240E4
:101BE000006002580010005CFFFF0F000000FF477C
:101BF0000023024000630258000084CB98020024B6
:101C0000400D0300000052C70000B8CF084800F0A4
:101C10001F012031BFF34F8F064A1060203020395A
:101C20000029FADCBFF34F8FBFF36F8F70470000BE
:101C3000400100245CEF00E0084800F01F01203163
:101C4000BFF34F8F064A1060203020390029FADC9C
:101C5000BFF34F8FBFF36F8F704700000001002468
:101C60005CEF00E070470000F8B504460025002650
:101C70000096002C02D0606D10B107E00120F8BD85
:101C8000204600F007F9A66584F850602068816856
:101C9000C1F3407119B18168734A114081602068B5
:101CA0008168C1F3007199B98168704A114041F0AF
:101CB000805181606E486F490068B0FBF1F0401CB4
:101CC000009002E00098401E009000980028F9D192
:101CD00020688168C1F3007141B9616D41F0100164
:101CE0006165A16D41F00101A165012506F07EFF4E
:101CF000616DC90600D430B1606D40F010006065C0
:101D000001252846F8BD606D20F4807040F0020087
:101D10006065206806F066FF00BB574A2068574B95
:101D2000904201D0984207D19168C1F300019E68AA
:101D3000C6F30006314303E051498968C1F300014D
:101D400061B9904201D0984201D14E4800E04E481E
:101D50006168826822F47C120A43826002F058FBB8
:101D600041F20301884202D9A06810280CD0A16872
:101D7000206B227F0843617D490341EA0241084309
:101D8000217F01290CD00FE0617D227F206B490368
:101D900040F0100041EA0241084340F00C00EFE738
:101DA000218C491E40EA4140616A29B1A26A01F4CE
:101DB0007871014342EA01002168CA68334B1A4036
:101DC0000243CA60206806F011FF0646206806F04C
:101DD00005FF06431DD1217DE06A40EA813120687C
:101DE000C26844F203039A430A43C26094F838007D
:101DF00001281DD02068016921F0010101612068DE
:101E00000169626B21F07041114301612046FEF7C8
:101E1000BFFDE06801281DD02068016B21F00F0193
:101E20000163606D20F0020040F00100606568E72A
:101E3000A28F0123D4E91010521E0143A06C03EBC2
:101E400002421043014320680269114B1A401143BA
:101E50000161D4E72068016BA26921F00F01521ED5
:101E600011430163DDE70000C0FFFF5FC0FFFF7F9C
:101E700098020024400D030000200240002102408F
:101E800000600258002302400063025803C0F0FFC4
:101E90001EF800FC70B5B8B00646142132A8FEF753
:101EA000E4FAC02102A8FEF7E0FA39493068884216
:101EB0006CD100214FF40020CDE9020105200490EF
:101EC000C02005900C2006900220079008908024E6
:101ED000099400250A950B952B9502A803F09AFB0F
:101EE00008B1FFF70AFA2B48016841F020010160B0
:101EF000006800F02000019026490831086840F091
:101F000001000860086800F001000190086840F0D6
:101F100004000860086800F004000190086840F0C0
:101F200002000860086800F0020001903294032467
:101F30003394349532A9184802F042F910203290B7
:101F40003394349532A9154802F03AF93294339417
:101F5000349532A9124802F033F9134C114820602D
:101F600009206060A560E5604FF48060206180001A
:101F700060618000A061E56125626562204601F034
:101F80000BF808B1FFF7B9F9F464A66338B070BD77
:101F900000200240D84402580000025800080258AD
:101FA0000004025810000240302000242DE9F047C0
:101FB000044689469246384FDFF8E0802068B842F0
:101FC00001D0404501D1364900E03649896801F029
:101FD0001F0506F00BFE10B10220BDE8F08794F853
:101FE000500001280BD0012084F85000002645B194
:101FF000052D06D0092D04D084F85060EDE70220AD
:10200000EBE72046FEF7ECFD10B184F85060E4E702
:10201000606D40F60161884340F48070606520681F
:10202000404500D00746874200D01DB9606D20F4BE
:1020300080106065606DC00404D5A06D20F00600BE
:10204000A06500E0A665E16C1748C863E16C17481D
:102050000864E16C1648C8641C202168086084F894
:1020600050602068416841F010014160E16A2068D9
:10207000C26822F003020A43C26021685346E06C42
:102080004A46403101F086F921688A68094B1A40B6
:10209000121D8A60A1E700000020024000210240DA
:1020A0000023024000630258B90A0008510B0008DF
:1020B000370B0008C0FFFF7FF0B5054600201F2347
:1020C000CC071CD001275B1E5C1C05D003F01F064B
:1020D00007FA06F40C42F6D032B1082A19D0102AB9
:1020E00013D0182A0DD00120002807D12B68596180
:1020F00029688B6823F0180313438B60F0BD01201F
:10210000F2E7072BF0D30120EEE7082BECD30120F8
:10211000EAE7102BE8D30120E6E7000010B50446FB
:10212000002C02D0607F10B106E0012010BD00201D
:102130002077204600F032F802206077207938B10D
:10214000D4E902122046FFF7B7FF48B1012010BDC5
:102150002168114848612068816821F01801816078
:102160006079A0B12168206908612068816862698E
:1021700021F060011143816020688168A26921F02B
:1021800080011143816001206077002010BD21682B
:102190004FF0FF300861E8E7B71DC10408B50068DB
:1021A0000649884208D10648016841F400210160CF
:1021B000006800F40020009008BD0000004C0258A8
:1021C000E04402582DE9F84F044602F027F9009048
:1021D0005CB194F83500022809D0802060650020A9
:1021E00084F834000120BDE8F88F0120FBE7D14ED0
:1021F000D04FD0491836DFF83C833037DFF83493BE
:10220000DFF830A308F14808DFF828B309F16009C6
:1022100020680AF1780A0BF1900B88422ED0B04268
:102220002CD0B8422AD0404528D0484526D0504529
:1022300024D0584522D0BF4AA83290421ED0BE4A70
:1022400090421BD0BC4A1832904217D0BA4A303262
:10225000904213D0B84A483290420FD0B64A60320A
:1022600090420BD0B44A7832904207D0B24A9032B2
:10227000904203D0B04AA83290420AD1026822F0BC
:102280001E0202602068426922F0800242612568D5
:1022900004E0026822F00E0202602568206888428D
:1022A0004DD0B0424BD0B84249D0404547D04845C8
:1022B00045D0504543D0584541D09E4AA83290421F
:1022C0003DD09D4A90423AD09B4A1832904236D037
:1022D000994A3032904232D0974A483290422ED0BA
:1022E000954A603290422AD0934A7832904226D062
:1022F000914A9032904222D08F4AA83290421ED00A
:102300008E4A90421BD08D4A1432904217D08B4A8D
:102310002832904213D0894A3C3290420FD0874AEB
:10232000503290420BD0854A6432904207D0834AA3
:102330007832904203D0814A8C32904204D1206E90
:10234000026822F4807202607A49206888422ED0A6
:10235000B0422CD0B8422AD0404528D0484526D09B
:10236000504524D0584522D07249A83188421ED009
:10237000714988421BD070491831884217D06E4984
:102380003031884213D06C49483188420FD06A49B5
:10239000603188420BD068497831884207D066495D
:1023A0009031884203D06449A831884204D1016841
:1023B00021F00101016013E0016821F001010160D9
:1023C0000EE002F02BF80099401A052808D92020C9
:1023D000343420620320607000202070012002E766
:1023E0002868C007EDD1534A0121206890422ED0C1
:1023F000B0422CD0B8422AD0404528D0484526D0FB
:10240000504524D0584522D04A4BA83398421ED07C
:10241000494B98421BD0484B1833984217D0464B33
:102420003033984213D0444B483398420FD0424B3C
:10243000603398420BD0404B7833984207D03E4BE4
:102440009033984203D03C4BA833984208D1A06DFA
:1024500094F85C3003F01F053F23AB40836007E036
:10246000A06D94F85C3003F01F0301FA03F343609E
:10247000206890424DD0B0424BD0B84249D0404540
:1024800047D0484545D0504543D0584541D0294ACA
:10249000A83290423DD0284A90423AD0264A18327B
:1024A000904236D0244A3032904232D0224A4832CA
:1024B00090422ED0204A603290422AD01E4A783272
:1024C000904226D01C4A9032904222D01A4AA8321A
:1024D00090421ED0194A90421BD0184A14329042A2
:1024E00017D0164A2832904213D0144A3C329042F8
:1024F0000FD0124A503290420BD0104A64329042B0
:1025000007D00E4A7832904203D00C4A8C32904267
:102510000BD1D4E919205060E06E30B1026822F48A
:1025200080720260D4E91C20506034346170002055
:10253000207058E61000024010040240085402586F
:102540002DE9F05F002808D090F83510022906D058
:10255000802141650120BDE8F09F0120FBE7A14AF1
:10256000A04BA04C18329F4D30339E4E4834DFF8BC
:1025700074B26035DFF870C27836DFF86C82DFF84D
:1025800068920CF1300CDFF860A208F16008016875
:1025900009F17809944F0AF1900A594531D09142D6
:1025A0002FD099422DD0A1422BD0A94229D0B1429F
:1025B00027D0DFF830E20EF1900E714521D0DFF820
:1025C00024E20EF1A80E71451BD0DFF81CE2AEF13B
:1025D000180E714515D0B94213D0DFF80CE20EF198
:1025E000180E71450DD061450BD0DFF8FCE10EF1FE
:1025F000480E714505D0414503D0494501D05145AC
:1026000037D14FF0040E80F835E0594527D091427C
:1026100025D0994223D0A14221D0A9421FD0B14256
:102620001DD070489030814219D06E48A830814248
:1026300015D06D481838814211D0B9420FD06A4880
:10264000183081420BD0614509D06748483081423B
:1026500005D0414503D0494501D0514504D1086812
:1026600020F001000860BAE0086820F0010008606E
:10267000B5E0D1F800E02EF00E0EC1F800E00168E0
:10268000DE46594531D091422FD099422DD0A142FA
:102690002BD0A94229D0B14227D0DFF848B10BF1A5
:1026A000900B594521D0DFF83CB10BF1A80B5945EF
:1026B0001BD0DFF834B1ABF1180B594515D0B94236
:1026C00013D0DFF824B10BF1180B59450DD061453B
:1026D0000BD0DFF814B10BF1480B594505D041453B
:1026E00003D0494501D0514506D1D1F800B02BF0B7
:1026F000010BC1F800B005E0D1F800B02BF0010BE0
:10270000C1F800B001684FF0010B714546D091420D
:1027100044D0994242D0A14240D0A9423ED0B142D9
:102720003CD0304A9032914238D02E4AA832914261
:1027300034D02D4A183A914230D0B9422ED02A4A8C
:10274000183291422AD0614528D0274A4832914216
:1027500024D0414522D0494520D051451ED0234A9E
:1027600091421BD0214A1432914217D01F4A28327D
:10277000914213D01D4A3C3291420FD01B4A503235
:1027800091420BD0194A6432914207D0174A7832ED
:10279000914203D0154A8C32914218D1016E0A68D9
:1027A00022F480720A60816D90F85C2002F01F02B2
:1027B0000BFA02F24A60D0E919215160C16E31B1C1
:1027C0000A6822F480720A60D0E91C21516080F806
:1027D00035B0002180F83410016D01B18847002028
:1027E000B9E60000100002402804024008540258D4
:1027F0002DE9FF5F0446002001904FF41651FD487B
:102800000068B0FBF1F00090A56D2E682968FA4FC2
:10281000DFF8E4B3DFF8E083DFF8DC930BF1180BAB
:10282000DFF8D4A308F13008206809F148090AF15B
:10283000600AB8423BD05A46904238D0404536D024
:10284000484534D0504532D0EB4A783290422ED0B1
:10285000E94A903290422AD0E74AA832904226D0E4
:10286000E64A904223D0E54A183290421FD0E34B0B
:10287000303398421BD0E14B4833984217D0DFF8F1
:102880007CC30CF1600C604511D0DFF870C30CF113
:10289000780C60450BD0DFF864C30CF1900C6045F8
:1028A00005D0DFF858E30EF1A80E70457ED194F8FC
:1028B0005C10082301F01F0103FA01F232424BD0F1
:1028C000B84232D0584530D040452ED048452CD063
:1028D00050452AD0C8497831884226D0C64990311F
:1028E000884222D0C449A83188421ED0C3498842B8
:1028F0001BD0C2491831884217D0C04930318842B4
:1029000013D0BE49483188420FD0BC49603188425B
:102910000BD0BA497831884207D0B8499031884203
:1029200003D0B649A831884203D1016801F00401FF
:1029300002E0016801F0080171B1016821F00401B1
:10294000016094F85C0000F01F0003FA00F2AA6036
:10295000606D40F00100606594F85C00012100F0BA
:102960001F008140314240D02068B84234D05845E1
:1029700032D0404530D048452ED050452CD09E4ACC
:102980007832904228D09C4A9032904224D09A4A81
:10299000A832904220D0994A90421DD0974A1832CE
:1029A000904219D0954A3032904200E0D2E113D0E3
:1029B000924A483290420FD0904A603290420BD0F7
:1029C0008E4A7832904207D08C4A9032904203D09F
:1029D0008A4AA83290427DD1406910F0800F04D01D
:1029E000A960606D40F00200606594F85C0004210D
:1029F00000F01F00814031423ED02068B84232D002
:102A0000584530D040452ED048452CD050452AD08E
:102A1000794A7832904226D0774A9032904222D03A
:102A2000754AA83290421ED0744A90421BD0734A15
:102A30001832904217D0714A3032904213D06F4A08
:102A4000483290420FD06D4A603290420BD06B4AB0
:102A50007832904207D0694A9032904203D0674A58
:102A6000A83290424ED1006810F0020F04D0A96045
:102A7000606D40F00400606594F85C00102100F087
:102A80001F008140314260D02068B84234D05845A0
:102A900032D0404530D048452ED050452CD0564AF3
:102AA0007832904228D0544A9032904224D0524AF0
:102AB000A832904220D0514A90421DD04F4A18323D
:102AC000904219D04D4A3032904215D04B4A48328C
:102AD000904200E014E00FD0484A603290420BD0A0
:102AE000464A7832904207D0444A9032904203D00E
:102AF000424AA832904207D1006800F0080006E080
:102B0000006872E70068B7E7006800F0040058B199
:102B1000A9602068016849030CD50068000304D44B
:102B2000216C09B1204688470FE0A16C69B12046AD
:102B300088470AE00168C90503D4016821F008014B
:102B40000160216C09B12046884794F85C0020217F
:102B500000F01F00814031427BD02068B84232D063
:102B6000584530D040452ED048452CD050452AD02D
:102B7000214A7832904226D01F4A9032904222D089
:102B80001D4AA83290421ED01C4A90421BD01B4ABC
:102B90001832904217D0194A3032904213D0174A57
:102BA000483290420FD0154A603290420BD0134AFF
:102BB0007832904207D0114A9032904203D00F4AA7
:102BC000A832904203D1006800F0100002E00068D3
:102BD00000F00200E8B3A96094F83500042812D090
:102BE0002068016849033DD50068000335D4616C55
:102BF00079B305E09802002410000240100402405E
:102C0000204688473FE02068016821F016010160F6
:102C10002068416921F080014161206C08B9A06CF5
:102C200020B12068016821F00801016094F85C007F
:102C300000F01F013F208840A860012084F8350083
:102C4000002084F83400216D002974D004B020469F
:102C500000E018E0BDE8F05F0847E16B99B120465D
:102C6000884710E00168C90509D4016821F0100106
:102C70000160012084F83500002084F83400E16B05
:102C800009B120468847606D002854D0606DC007A8
:102C900058D0042084F835002068B84231D0584517
:102CA0002FD040452DD048452BD0504529D0B7498D
:102CB000884226D0B5491831884222D0B3493031F4
:102CC00088421ED0B24988421BD0B149183188428F
:102CD00017D0AF493031884213D0AD4948318842CE
:102CE0000FD0AB49603188420BD0A9497831884276
:102CF00007D0A7499031884203D0A549A83188421E
:102D000004D1016821F00101016003E0016821F0B4
:102D10000101016021680198009A401C01909042D5
:102D200002D80868C007F6D10868C00704D003209D
:102D300084F8350003E087E0012084F835000020A6
:102D400084F83400E16C00297ED004B02046BDE850
:102D5000F05F08478F4EB0421BD08E4E1436B04203
:102D600017D08C4E2836B04213D08A4E3C36B04233
:102D70000FD0884E5036B0420BD0864E6436B042EB
:102D800007D0844E7836B04203D0824E8C36B042A3
:102D90005AD106684FF0040E94F85CB00BF01F0B8C
:102DA0000EFA0BFE1EEA010FCDF80CE05ED05FEAD2
:102DB000467E5BD503986860300411D5F00307D4D4
:102DC000A16C002940D004B02046BDE8F05F084760
:102DD000216C002938D004B02046BDE8F05F0847D8
:102DE000B0063BD42068B8422DD06849603988428B
:102DF00029D0404527D0484525D0504523D06349A8
:102E0000884220D06149183188421CD05F49303156
:102E1000884218D05E49884215D0904213D05C4950
:102E2000303188420FD098420DD0594960318842E4
:102E300009D057497831884205D0604503D05449BC
:102E4000A831884206D100E07CE0016821F0080149
:102E5000016003E0016821F004010160216C002998
:102E600070D004B02046BDE8F05F08474FF0020E76
:102E70000EFA0BFE1EEA010FCDF808E063D05FEA00
:102E8000867E60D502986860300411D5F00307D4BF
:102E9000616C002978D004B02046BDE8F05F084797
:102EA000E16B002970D004B02046BDE8F05F084710
:102EB000B0063FD42068B8422DD0344960398842EA
:102EC00029D0404527D0484525D0504523D02F490B
:102ED000884220D02D49183188421CD02B493031EE
:102EE000884218D02A49884215D0904213D02849E8
:102EF000303188420FD098420DD025496031884248
:102F000009D023497831884205D0604503D0204953
:102F1000A831884204D1016821F01401016003E066
:102F2000016821F00A010160012084F835000020C9
:102F300084F83400E16B002926D004B02046BDE8B7
:102F4000F05F084720E0082202FA0BF20A421BD089
:102F5000310719D5016821F00E01016094F85C0079
:102F600000F01F01012000FA01F16960606584F83A
:102F70003500002084F83400E16C002904D004B04E
:102F80002046BDE8F05F0847BDE8FF9F880002408B
:102F900010040240085402582DE9F05F044601F085
:102FA0003DFA0646002C7DD0F44F0222DFF8CC8398
:102FB0000025DFF8C893DFF8C4A308F13008DFF874
:102FC000BCB309F1480920680AF1600A0BF1780BDB
:102FD000B84232D0E949183188422ED040452CD031
:102FE00048452AD0504528D0584526D0E34990314D
:102FF000884222D0E149A83188421ED0E049884267
:103000001BD0DF491831884217D0DD493031884262
:1030100013D0DB49483188420FD0D949603188420A
:103020000BD0D7497831884207D0D54990318842B2
:1030300003D0D349A83188427ED184F8352084F862
:103040003450B84234D0CD491831884230D0404550
:103050002ED048452CD050452AD0584528D0C749B5
:103060009031884224D0C549A831884220D0C44933
:1030700088421DD0C2491831884219D0C049303128
:10308000884215D0BE494831884211D0BC496031D0
:1030900088420DD0BA497831884209D0B849903178
:1030A000884200E009E003D0B549A831884207D141
:1030B000016821F00101016013E00120BDE8F09FEB
:1030C000016821F0010101600BE001F0A7F9801B0C
:1030D000052806D920206065032084F835000120EA
:1030E000ECE720680068C007EFD122681168A548A6
:1030F0000140D4E902031843D4E9043633431843AA
:10310000A3691843E3691843236A18430843616AB3
:10311000042903D1D4E90B13194308439A490968D8
:103120006FF30F01B1F1005F11D36168A1F12903C1
:10313000052B0AD9163B00E02EE0032B05D9083BEE
:10314000012B02D94F39032901D840F480101060B7
:103150002068406920F00701606A40EA01060428FF
:103160000DD1A06A0643E06A48B12046FDF768FF2A
:1031700028B140206065012084F835009EE7206872
:1031800046612046FDF76EFE94F85C1001F01F02C8
:103190003F219140816066E07C4988421BD07B4B97
:1031A0001433984217D0794B2833984213D0774B79
:1031B0003C3398420FD0754B503398420BD0734B31
:1031C0006433984207D0714B7833984203D06F4BE9
:1031D0008C3398427ED1884211D06C491431884298
:1031E0000DD06A492831884209D068493C3188426B
:1031F00005D066495031884201D06449643184F871
:10320000352084F83450026861490A40A168402999
:103210007ED080297DD00021E36841EAD301236973
:1032200041EAD301636941EAD301A36941EAD301C9
:10323000E36941EAD301236A41EA131111430160B2
:1032400052492068494208441421B0FBF1F0800043
:10325000E0652046FDF706FE94F85C1001F01F02C1
:103260000121914041602068B84256D0434918314D
:10327000884252D0404550D048454ED050454CD061
:1032800058454AD03D499031884246D03B49A83103
:10329000884242D03A4988423FD039491831884261
:1032A0003BD037493031884237D0354948318842A0
:1032B00033D03349603188422FD031497831884248
:1032C0002BD02F499031884227D02D49A8318842F0
:1032D00023D000E02DE02D4988421ED02B49143127
:1032E00088421AD029492831884216D027493C31D2
:1032F000884212D02549503188420ED0234964318A
:1033000088420AD021497831884206D01F4901E01D
:103310000AE00BE08C31884229D12046FDF702FEFD
:10332000A06880280CD00CE0102175E74FF4804194
:1033300072E740206065032084F835000120BDE677
:103340006560216E20790860D4E9191048606068D2
:10335000401E072808D82046FDF734FEE06E0560C1
:10336000D4E91C10486002E0E5662567656765657D
:10337000012084F835000020A0E600001000024083
:10338000100402403F8010FE0010005C08540258F8
:103390000F00FEFF2DE9F84F044600200090002C9E
:1033A00015D094F83400012813D0012084F834009B
:1033B00094F835500020012D0DD04FF40061616567
:1033C00084F83400012000900098BDE8F88F0120B7
:1033D000FBE70220F9E7022584F835506065A54D2A
:1033E000A44EA44F1835DFF88CC23036DFF8848243
:1033F0004837DFF88092DFF87CA208F16008DFF838
:1034000074B209F1780920680AF1900A0BF1A80B4F
:1034100060453BD0A84239D0B04237D0B84235D011
:10342000404533D0484531D050452FD058452DD058
:10343000DFF844C2604529D0DFF83CC20CF1180C1B
:10344000604523D0DFF830C20CF1300C60451DD050
:10345000DFF824C20CF1480C604517D0DFF818C221
:103460000CF1600C604511D0DFF80CC20CF1780C47
:1034700060450BD0DFF800C20CF1900C604505D020
:10348000DFF8F4C10CF1A80C604506D1D0F800C0FB
:103490002CF0010CC0F800C005E0D0F800C02CF002
:1034A000010CC0F800C02046FDF706FE71492068F7
:1034B00088422CD0A8422AD0B04228D0B84226D088
:1034C000404524D0484522D0504520D058451ED0F4
:1034D000694A90421BD0684A1832904217D0664A17
:1034E0003032904213D0644A483290420FD0624A40
:1034F000603290420BD0604A7832904207D05E4AE8
:103500009032904203D05C4AA83290420DD10268BA
:1035100022F01E0242F016020260206C90B1206878
:10352000026842F0080202600CE0026822F00E021B
:1035300042F00A020260206C20B12068026842F06A
:1035400004020260206888424BD0A84249D0B042B1
:1035500047D0B84245D0404543D0484541D050457A
:103560003FD058453DD0444A90423AD0424A183262
:10357000904236D0404A3032904232D03E4A4832B1
:1035800090422ED03C4A603290422AD03A4A783259
:10359000904226D0384A9032904222D0364AA83201
:1035A00090421ED0354A90421BD0344A1432904289
:1035B00017D0324A2832904213D0304A3C329042DF
:1035C0000FD02E4A503290420BD02C4A6432904297
:1035D00007D02A4A7832904203D0284A8C3290424F
:1035E0000DD1206E0268D20303D5026842F48072C6
:1035F0000260E06E18B1026842F4807202602068D6
:1036000088422CD0A8422AD0B04228D0B84226D036
:10361000404524D0484522D0504520D058451ED0A2
:10362000154988421BD014491831884217D01249D5
:103630003031884213D01049483188420FD00E49AA
:10364000603188420BD00C497831884207D00A4952
:103650009031884203D00849A831884204D10168DA
:1036600041F001010160AFE6016841F00101016034
:10367000AAE600001000024010040240085402585C
:1036800010B590F89830012B08D0022B06D050F8D6
:103690009C1F41F002010160012010BD03689C6D78
:1036A0000C4204D1DC6D44F00104DC6505E09C6D46
:1036B00031EA04041CD00324DC658B0504D50368BF
:1036C00053F8E04F14431C604B0504D5036853F8CE
:1036D000E44F14431C600068426D084B0B401A43D2
:1036E00042650748026842EA91710160002010BDFE
:1036F000DC6D44F00204DC65DFE70000FFFFCF3F34
:1037000014A8004070B5044694F89800022806D02A
:1037100054F89C0F40F008002060012070BD206824
:10372000D0F8C03013F07C5F0AD0D0F8C4309B02D0
:103730000DD554F89C0F40F400702060012070BD3E
:1037400054F89C0F40F020002060012070BDD0F89C
:10375000C400C0F3044520462B46FDF7F5FE216862
:103760000120A840C1F8D000C4F89400002070BD2A
:10377000704790F89830012B06D050F89C1F41F00C
:10378000040101600120704759B1012912D000687D
:1037900050F8B01F21F0FE4141EA026101600020B3
:1037A0007047006850F8F01F21F07C5141EA026137
:1037B0000160F4E7006850F8A01F21F0FE4141EAE3
:1037C00002610160EBE710B590F89820012A08D05B
:1037D000022A06D050F89C1F41F00201016001202E
:1037E00010BDCA680B688BB1072A0B6943EA4273A4
:1037F0002BD00C7A4A6942EA84724968006F00EB68
:10380000C100036042604FF0000010BD072A10D0D5
:103810000C7A4FEAC2624B6943EA84730C8A42EA2B
:10382000044243EA02034968C06E00EB8100036072
:10383000E9E70B8A4FF060548A6942EA0343CA6998
:1038400044EA022243EA0203EDE78A69D5E730B58C
:10385000039C90F89850012D06D050F89C1F41F021
:1038600004010160012030BD0068090141EA8201C4
:1038700041EA43012143C0F88010002030BD90F898
:103880009830012B06D050F89C1F41F004010160D4
:1038900001207047006842EA0121816400207047DE
:1038A00090F89810012906D050F89C1F41F00401AF
:1038B0000160012070470068C16841F40001C160E7
:1038C00000207047D0F89C10002901D000F055BCB2
:1038D00070477047F0B5002490F89850022D06D03C
:1038E00050F89C1F41F0080101600120F0BD402903
:1038F0000BD0412936D0056D8D4260D850F89C1F01
:1039000041F0200101600120F0BD0568D5F8A060FC
:1039100016F4FE0F18D0D5F8A46076061BD0D5F8A3
:10392000A460F60105D5D5F8A06016F0004F00D5CB
:103930000124D5F8A450C5F305252C44456C466FE9
:10394000654306EB85063FE050F89C1F41F02001DF
:1039500001600120F0BD50F89C1F41F480710160AE
:103960000120F0BD0568D5F8B06016F4FE0F18D040
:10397000D5F8B46076061BD0D5F8B460F60105D54D
:10398000D5F8B06016F0004F00D50124D5F8B4503A
:10399000C5F305252C44C56C866F654306EB85068B
:1039A00012E050F89C1F41F0200101600120F0BDA1
:1039B00050F89C1F41F4807101600120F0BD456DFD
:1039C000C66F4D4306EB8506356805F080455560AA
:1039D0002DB3356825F060451560356805F0005554
:1039E0009560356805F000451561B588ADB2D561C3
:1039F0007568C5F30345D560756805F48015556194
:103A0000756805F4001595617568C5F3066515625E
:103A100075680836ED0F55620025174F09E03568C7
:103A2000C5F38A451560D8E716F805C003F805C048
:103A30006D1CD2F80CC017F80CC0AC45F4D8402966
:103A400009D041290BD0012220290CD200688A40DC
:103A5000C0F898200DE00068C0F8A84009E00068B0
:103A6000C0F8B84005E0006801F01F018A40C0F8C6
:103A70009C200020F0BD0000A8F400087047000062
:103A80002DE9FE4F0446B64F38688007391D096896
:103A900000EA817002902068016D01F47041D0F855
:103AA00054A00AEA010A016D01F00F01D0F854B0E8
:103AB0000BEA010B016D01F0F001426D0A40019229
:103AC000016D01F07151D0F8548008EA0108016DD0
:103AD00001F06071426D0A400092416D056D4FF03A
:103AE0000009CE43F10509D4E943C90506D4B91547
:103AF0000165C7F800902046FFF7C0FF700510D49D
:103B0000E84340050DD42068D0F8DC20D0F8E4105C
:103B100011404FF480620265C7F80090204600F023
:103B20004AFB029858B18F490298084021680865FD
:103B30000298800F386002992046FFF719FEBAF10B
:103B4000000F0BD0216887480AEA000008654FEA99
:103B50009A7038605146204600F02FFBBBF1000FF1
:103B60000BD021687F480BEA000008654FEA9B7084
:103B700038605946204600F07BFA019858B17949DF
:103B800001980840216808650198800F3860019904
:103B9000204600F0F1FA30050BD4E843000508D4C4
:103BA00021684FF400600865C7F80090204600F0D7
:103BB00005FBB00510D4E84380050DD42068D0F88B
:103BC000D820D0F8E01011404FF400720265C7F819
:103BD0000090204600F0F0FA30030BD4E8430003D5
:103BE00008D421684FF400200865C7F800902046EB
:103BF00000F03CFAF0030BD4E843C00308D421687A
:103C00004FF480300865C7F80090204600F0D2FAE3
:103C100070030BD4E843400308D421684FF480209C
:103C20000865C7F80090204600F0C3FAB0030ED430
:103C3000E84380030BD421684FF400300865C7F8CF
:103C40000090D4F89C0040F08000C4F89C000098DC
:103C500058B1444900980840216808650098800FD1
:103C6000386000992046FFF734FEB8F1000F0DD000
:103C700021683C4808EA000008654FEA98703860FF
:103C8000D4F89C0040EA0800C4F89C00364920683B
:103C900088425BD160688168890757D0016A01F06A
:103CA0000F02416A1140026A02F03002476A17406F
:103CB000026A02F4C072D0F8248008EA0208026A9C
:103CC00002F4FC42456A1540026A02F4F022466A98
:103CD0001640D0F82490D0F820A019B101622046F7
:103CE00000F064FA2FB1606807623946204600F0A0
:103CF0005FFA6FEA090040060ED46FEA0A00400638
:103D00000AD46068C16B090CC26B02F03F02402309
:103D10000362204600F04BFAB8F1000F06D060684D
:103D2000C0F820804146204600F03FFA35B1606877
:103D30000562D4F89C002843C4F89C0036B1606842
:103D40000662D4F89C003043C4F89C00D4F89C0070
:103D5000002802D02046FFF7B5FDBDE8FE8F000029
:103D600010A80040FFFFCF3F00A000402DE9F04326
:103D700093B004464C2295496846FCF75DFB6CB154
:103D8000934F2068B84202D100F5807060604FF414
:103D9000407994F89800002620B108E0012013B083
:103DA000BDE8F08384F89960204600F013F920689C
:103DB000816921F01001816100F030FB05464FF070
:103DC00003080DE000F02AFB401B0A2808D954F82C
:103DD0009C0F40F00100206004F8048C0120DEE715
:103DE000206880690007EDD42068816941F00101F5
:103DF000816100F013FB05460DE000F00FFB401B56
:103E00000A2808D954F89C0F40F00100206004F8FB
:103E1000048C0120C3E720688069C007EDD02068CA
:103E2000816941F002018161207C012839D020683C
:103E3000816941F040018161607C012837D02068B0
:103E4000816921F480418161A07C012835D02068FE
:103E5000816941F48051816120688169A26821F4FF
:103E60004071114381612068816921F0A401816161
:103E70002068016921F010010161E068012822D069
:103E800030B302282BD02068816941F08001816124
:103E90002068016941F010010161E068032818D031
:103EA00022E02068816921F040018161C4E7206837
:103EB000816941F480418161C6E72068816921F40C
:103EC00080518161C8E72068816941F00401816106
:103ED0000AE02068816941F02001816104E02068E6
:103EE000816941F020018161207E401E4106E06928
:103EF000401E41EA0020216A491E0843A18A491E4A
:103F000040EA01402168C861A06848450FD1E16AD4
:103F1000A06A491E401E40EA0121206B401E41EA72
:103F20000011A08C401E41EA00402168C860206E4C
:103F300028B1206850F8C01F626E11430160D4E9B7
:103F40001701C842694609D0206850F8C82FA36EEF
:103F500022F0070251F823301A430260206C48B166
:103F6000206850F8BC2F636C22F0070251F8233010
:103F70001A430260A06C50B1206850F8BC2FE36C6B
:103F800022F0700251F8233042EA03120260206DE1
:103F900050B1206850F8BC2F636D22F4E06251F8F4
:103FA000231042EA012101602068B84204D1606810
:103FB000816821F00301816044F8946FA6600120BC
:103FC0002071943C2046FDF7E7F9E8E6B8F40008D4
:103FD00000A0004010B5B8B00446142132A8FCF788
:103FE00044FAC02102A8FCF740FA1D492068884223
:103FF00034D100204FF40041CDE9021048031E9057
:1040000002A801F007FB08B1FDF777F91548016830
:1040100041F480710160006800F4807001901148E3
:104020000C38016841F008010160006800F00800E8
:10403000019003203290022033900020349035907C
:104040000920369032A9084800F0BAF8002205216C
:10405000132000F0CFFC132000F0BEFC38B010BDE0
:1040600000A00040EC440258000C025870470000C9
:1040700070B5C80776D03D4A40213B4B02F128007D
:10408000FFF728FC39480023374CA4F120020068D0
:10409000B0F5887F0BD11370151D1178665C6E54D6
:1040A000491CC9B211700429F7D313625362A0F5F9
:1040B000807111390CD113702B4D183D1178665C4D
:1040C0006E54491CC9B211700429F7D313625362AC
:1040D000B0F5907F0CD11370234D143D1178665CC0
:1040E0006E54491CC9B211700429F7D3136253628C
:1040F000A0F5807121390CD113701B4D103D117842
:10410000665C6E54491CC9B211700429F7D313625E
:104110005362A0F58071013905D1134D21780C3D12
:10412000298013625362B0F5817F05D10E4D21784D
:10413000AD1F298013625362A0F5E061053906D1F5
:104140000B4925780D7065794D7013625362A0F5A7
:10415000E061063906D10748217801706179417024
:104160001362536270BD000080020024F02000241E
:10417000EC000024F4000024704790F89810012906
:1041800006D050F89C1F41F00401016001207047E7
:10419000022180F8981001688A6922F001028A6180
:1041A0000021C0F89C10002070477047704770478E
:1041B00070477047704770477047704770470000FE
:1041C0002DE9F84F00227B4D03264FF001080F2701
:1041D0004FF0B04CE6E008FA02F31C409A46002C7F
:1041E0007ED00B7903F00303012B01D0022B1BD1EE
:1041F000D0F80890530006FA03FB29EA0B09D1F81E
:104200000CB00BFA03FB4BEA090BC0F808B043688B
:1042100023EA0A0391F80490C9F3001909FA02F994
:1042200049EA0309C0F804900B79DB439B070ED0E1
:10423000D0F80C90530006FA03FA29EA0A09D1F8DB
:1042400008A00AFA03FA4AEA090AC0F80CA00B7996
:1042500003F00303022B14D1D30800EB8303D3F83C
:1042600020A04FEA42794FEAD96907FA09FB2AEA06
:104270000B0AD1F810B00BFA09FB4BEA0A0BC3F892
:1042800020B0D0F80090530006FA03FA29EA0A0990
:1042900091F804A00AF0030A0AFA03FA4AEA090AA2
:1042A000C0F800A04B6813F4403F7AD0424BD3F8DB
:1042B000009049F00209C3F800901B6803F0020364
:1042C000009322F0030909F1B049D9F808B4930723
:1042D0004FEA137A07FA0AF32BEA030B374B00E095
:1042E0005FE0984201D100232DE0354B984201D187
:1042F000012328E0334B984201D1022323E0324BC3
:10430000984201D103231EE0304B984201D104238F
:1043100019E02F4B984201D1052314E02D4B984210
:1043200001D106230FE02C4B984201D107230AE06C
:104330002A4B984201D1082305E0294B984201D12C
:10434000092300E00A2303FA0AF343EA0B03C9F83E
:104350000834DCF80030A343D1F804905FEAC9299F
:1043600000D52343CCF80030DCF80430A343D1F867
:1043700004905FEA892900D52343CCF804306B68A8
:10438000A343D1F804905FEA893900D523436B60D9
:104390002B68A343D1F804905FEAC93900D52343C1
:1043A0002B60521C0C6834FA02F37FF414AFBDE8A2
:1043B000F88F000080000058F444025800000258B2
:1043C0000004025800080258000C0258001002585D
:1043D0000014025800180258001C0258002002580D
:1043E000002402580069084201D0012070470020D3
:1043F0007047426921EA02030A4043EA02418161AF
:104400007047002A01D081617047090481617047BB
:1044100001480068000C70470010005C014880688B
:10442000704700008C02002490F84120202A01D01F
:104430000220704790F84020012A20D0012280F805
:104440004020242280F841200268136823F00103F1
:1044500013600268136823F48053136002681368C2
:104460000B43136001680A6842F001020A602021D0
:1044700080F84110002180F8401000207047022091
:10448000704790F84120202A01D00220704790F810
:104490004020012A1ED0012280F84020242280F8EA
:1044A00041200268136823F0010313600268136857
:1044B00023F4706343EA0121116001680A6842F045
:1044C00001020A60202180F84110002180F840108C
:1044D000002070470220704708B507490A6842F07B
:1044E00002020A60096801F00201009103490A68AA
:1044F00002430A6008BD0000F44402580404005856
:1045000070B50446002C04D094F84100002510B189
:1045100006E0012070BD84F84050204600F00CF900
:10452000242084F841002068016821F00101016025
:104530002168606820F0706008612068816821F45B
:1045400000418160E068012831D02168A06840F412
:1045500004408860E06802282FD02068416821F478
:104560000061416020684168174A1143416020683A
:10457000C16821F40041C160D4E904010843A16984
:1045800040EA01202168C860D4E907010843216896
:1045900008602068016841F0010101606564202025
:1045A00084F84100256384F84250002070BD2168E2
:1045B000A06840F400408860CCE72068416841F47E
:1045C00000614160CEE70000008000022DE9F84F55
:1045D00004468B4617469846DDF828A094F841001B
:1045E000202802D00220BDE8F88F94F8400001286E
:1045F0000FD0012084F84000FFF710FF0646204648
:10460000012200961923D10303F058FF18B10120AD
:10461000E9E70220E7E7212084F84100102084F830
:104620004200002565643A466762A4F82A80656303
:10463000608DFF274FF08078FF284FF0007902D976
:104640002785434602E0608D20854B46208D384902
:1046500098B1107822689062606A401C6062608D38
:10466000401E6085208D401E2085401C0091C2B2F6
:104670005946204603F00AFF3FE000222046009101
:10468000594603F003FF38E032465146204603F016
:104690007DFF08B10120A6E7606A21680078886282
:1046A000606A401C6062608D401E6085208D401EE7
:1046B00080B22085618D01B3F8B900225346802174
:1046C0002046009603F0FAFE08B101208BE7608DCA
:1046D000FF2808D93A462785434659462046009583
:1046E00003F0D4FE09E0608D20854B4600955946C5
:1046F00094F82820204603F0C9FE608D0028C3D11D
:1047000032465146204603F016FF08B101206AE701
:1047100020682021C16120684268064B1A4042602F
:1047200084F8411084F8425084F8405000205AE741
:104730000020008000E800FE2DE9F047B8B00446F4
:10474000142132A8FBF791FEC02102A8FBF78DFED1
:10475000334D12273148002621680835304C4FF080
:104760000108DFF8C0A081424FF0040929D10821D7
:104770000020CDE90210239602A800F04BFF08B1FB
:10478000FCF7BBFD206840F002002060206800F0CC
:1047900002000190C02032903397CDF8D08035963A
:1047A000CDF8D89032A95046FFF70AFD286840F4AA
:1047B00000102860286800F40010019038B0BDE8AF
:1047C000F08719488142F9D108200021CDE9020182
:1047D000239602A800F01EFF08B1FCF78EFD2068AA
:1047E00040F002002060206800F0020001904FF4C9
:1047F000406032903397CDF8D0803596CDF8D89080
:1048000032A95046FFF7DCFC286840F4800028609D
:10481000286800F480000190D0E7000000540040B8
:10482000E0440258000402580058004002488168E1
:1048300002781144816070478C02002410B5032077
:1048400000F0F8F801F09CFD0F490A68C2F3032359
:104850000E4AD35C03F01F03D840096801F00F0132
:10486000515C0B4A01F01F0120FA01F11160094966
:1048700008600F2000F010F808B1012010BD00F012
:1048800099F8002010BD0000184402582CF50008CB
:104890009C0200249802002410B58AB00446102C13
:1048A0002DD200222146192000F0A4F8192000F092
:1048B00093F8164804601648016841F00101016050
:1048C000006800F00100009001A902A801F0E2FCDC
:1048D00001F044FD40000F49B0FBF1F1491E0F48C3
:1048E0000D4A026040F2E732C2604160002101617E
:1048F000816002F053FC20B101200AB010BD0120FC
:10490000FBE7064802F0BAFCF7E70000900200243B
:10491000F044025840420F00000001407C2900246E
:10492000134A41781160124908310A6822F00102E5
:104930000A600B1F42681A60027BC37A120742EAC0
:104940000362837A42EAC342437B42EA8342837B27
:1049500042EA4342C37B42EA0342437A42EA0322E9
:10496000037A007842EA430202430A60704700007B
:1049700098ED00E0BFF35F8F0448016821F48031B7
:1049800001600249002070310860704724ED00E0AA
:10499000074940F00100086005487038016841F49B
:1049A00080310160BFF34F8FBFF36F8F70470000FE
:1049B00094ED00E082B00748016841F00201016017
:1049C000006800F00200019000220F21901E02B04A
:1049D00000F010B8F4440258002809DB012100F06F
:1049E0001F0291404009800000F1E020C0F8001152
:1049F00070470000F0B40D460D4B1B68C3F3022353
:104A0000C3F10704042C00D90424191D072901D27D
:104A1000002300E0DB1E012606FA04F1491E2940AE
:104A200099409E40761E16403143F0BC07F05CBCB6
:104A30000CED00E000F00701054A10684FF6FF0397
:104A4000184040EA01200349084310607047000005
:104A50000CED00E00000FA0570B514490A68D24375
:104A6000520708D5096801F00701814201D00120F1
:104A700070BD002070BD0A6822F0070202430A6080
:104A8000FFF7CCFC0446094D4FF47A76083D06E06A
:104A9000FFF7C4FC001BB04201D9012070BD28689B
:104AA000C0438004F4D4002070BD00000C480258BC
:104AB0000248016841F48071016070470048025863
:104AC00010B501F017FC05490968054AC1F3021148
:104AD000515C01F01F01C84010BD00002044025885
:104AE0002CF5000810B569490A6802F0030209684C
:104AF000C1F30511654B1B1D1B6803F00103634CDB
:104B00000C342468C4F3CC0414FB03F300EE103A15
:104B1000B8EE400A002971D09FED5D1A9FED5D2A25
:104B20005A4BF7EE000A0833F2B3012A7DD0022A6D
:104B30007AD001EE901A1968F8EE611AC2EE212AB5
:104B4000C1F3080101EE901AF8EE611A40EE011A65
:104B500031EEA00A22EE800A1968C1F3462101EE67
:104B6000101AB8EE411A31EE201AC0EE011ABCEE4E
:104B7000E11A80ED001A1968C1F3064101EE101A1E
:104B8000B8EE411A31EE201AC0EE011ABCEEE11A5D
:104B900080ED011A1968C1F3066101EE101AB8EE32
:104BA000411A71EE200A00E006E080EE201ABCEE09
:104BB000C10A80ED020A10BD344A283A1468A406DE
:104BC0001ED51268C2F3C104334AE24001EE902AB6
:104BD000F8EE612A01EE901A1968F8EE611A82EE79
:104BE000A12AC1F3080101EE901AF8EE611A40EE15
:104BF000011A31EEA00A22EE000AADE741E014E00E
:104C000001EE901A1968F8EE611AC2EE212AC1F37A
:104C1000080101EE901AF8EE611A40EE011A31EE29
:104C2000A00A22EE800A97E715E001EE901ADFED68
:104C30001B2A1968F8EE611A82EEA12AC1F3080155
:104C400001EE901AF8EE611A40EE011A31EEA00A58
:104C500022EE000A80E701EE901ADFED112A1968B2
:104C6000F8EE611A82EEA12AC1F3080101EE901A52
:104C7000F8EE611A40EE011A31EEA00A22EE000AA7
:104C80006AE7002101604160816010BD284402583C
:104C9000000000390024744C0090D0030024744AB2
:104CA00020BCBE4B10B569490A6802F003020968CE
:104CB000C1F30531654B1B1D1B68C3F30013634C27
:104CC00014342468C4F3CC0414FB03F300EE103A4C
:104CD000B8EE400A002971D09FED5D1A5B4BF7EEEC
:104CE000000A1033F2B39FED5B2A012A7FD0022A1B
:104CF0007CD001EE901A1968F8EE611AC2EE212AF2
:104D0000C1F3080101EE901AF8EE611A40EE011AA3
:104D100031EEA00A22EE800A1968C1F3462101EEA5
:104D2000101AB8EE411A31EE201AC0EE011ABCEE8C
:104D3000E11A80ED001A1968C1F3064101EE101A5C
:104D4000B8EE411A31EE201AC0EE011ABCEEE11A9B
:104D500080ED011A1968C1F3066101EE101AB8EE70
:104D6000411A00E008E071EE200A80EE201ABCEE45
:104D7000C10A80ED020A10BD344A283A1468A4061C
:104D80001ED51268C2F3C104334AE24001EE902AF4
:104D9000F8EE612A01EE901A1968F8EE611A82EEB7
:104DA000A12AC1F3080101EE901AF8EE611A40EE53
:104DB000011A31EEA00A22EE000AADE741E016E04A
:104DC00001EE901ADFED252A1968F8EE611A82EEDD
:104DD000A12AC1F3080101EE901AF8EE611A40EE23
:104DE000011A31EEA00A22EE000A95E713E001EE67
:104DF000901A1968F8EE611AC2EE212AC1F308016F
:104E000001EE901AF8EE611A40EE011A31EEA00A96
:104E100022EE800A80E701EE901ADFED112A196870
:104E2000F8EE611A82EEA12AC1F3080101EE901A90
:104E3000F8EE611A40EE011A31EEA00A22EE000AE5
:104E40006AE7002101604160816010BD284402587A
:104E5000000000390024744A0090D0030024744CF0
:104E600020BCBE4B10B569490A6802F0030209680C
:104E7000C1F30551654B1B1D1B68C3F30023634C35
:104E80001C342468C4F3CC0414FB03F300EE103A82
:104E9000B8EE400A002971D09FED5D1A5B4BF7EE2A
:104EA000000A1833F2B39FED5B2A012A7FD0022A51
:104EB0007CD001EE901A1968F8EE611AC2EE212A30
:104EC000C1F3080101EE901AF8EE611A40EE011AE2
:104ED00031EEA00A22EE800A1968C1F3462101EEE4
:104EE000101AB8EE411A31EE201AC0EE011ABCEECB
:104EF000E11A80ED001A1968C1F3064101EE101A9B
:104F0000B8EE411A31EE201AC0EE011ABCEEE11AD9
:104F100080ED011A1968C1F3066101EE101AB8EEAE
:104F2000411A00E008E071EE200A80EE201ABCEE83
:104F3000C10A80ED020A10BD344A283A1468A4065A
:104F40001ED51268C2F3C104334AE24001EE902A32
:104F5000F8EE612A01EE901A1968F8EE611A82EEF5
:104F6000A12AC1F3080101EE901AF8EE611A40EE91
:104F7000011A31EEA00A22EE000AADE741E016E088
:104F800001EE901ADFED252A1968F8EE611A82EE1B
:104F9000A12AC1F3080101EE901AF8EE611A40EE61
:104FA000011A31EEA00A22EE000A95E713E001EEA5
:104FB000901A1968F8EE611AC2EE212AC1F30801AD
:104FC00001EE901AF8EE611A40EE011A31EEA00AD5
:104FD00022EE800A80E701EE901ADFED112A1968AF
:104FE000F8EE611A82EEA12AC1F3080101EE901ACF
:104FF000F8EE611A40EE011A31EEA00A22EE000A24
:105000006AE7002101604160816010BD28440258B8
:10501000000000390024744A0090D0030024744C2E
:1050200020BCBE4B2DE9F04F89B0FD4CFB4A80F40B
:105030008079DFF8E8834FF080572511F94BDFF8CE
:10504000E8A3503A59EA0109A8F104064FF0005CC0
:1050500036D080F4007959EA01097FD0DFF8BC939B
:1050600080F4806B5BEA010B09F108096FD080F4D2
:10507000006B5BEA010B6BD080F4805B5BEA010B99
:1050800067D080F4005B5BEA010B4FF4803A4FF489
:10509000003E6ED080F4002B5BEA010B6AD080F4F6
:1050A000803B5BEA010B75D080F480460E4372D0E2
:1050B00080F4004008436FD0002009B0BDE8F08FB5
:1050C000D8F8000000F00700052845D2DFE800F01E
:1050D000030D174221001068800104D506A8FFF7D0
:1050E00001FD0798E9E70020E7E71068000104D513
:1050F00003A8FFF7D7FD0398DFE70020DDE710687E
:10510000800004D56846FFF7ADFE0098D5E7002083
:10511000D3E7306800F040501168490700D530B13E
:105120001168C9050AD5B84208D12846C5E71068F4
:10513000C0F3C10024FA00F0BFE70FE01168890353
:1051400003D5604501D11846B7E70020B5E759E01F
:10515000AAE0FBE05046B0E70020AEE7D8F8000038
:1051600000F4E070802824D005DC58B1402807D135
:1051700015E03DE18AE1C02842D0B0F5807F22D021
:1051800000209AE71068800107D506A8FFF7AAFC5F
:10519000079892E7B6E1D1E115E200208DE71068AB
:1051A000000104D503A8FFF77DFD039885E70020E3
:1051B00083E71068800004D56846FFF753FE009827
:1051C0007BE7002079E7306800F04050116849071C
:1051D00000D530B11168C90509D5B84207D12846B4
:1051E0006BE71068C0F3C10024FA00F065E71168AE
:1051F000890303D5604501D118465EE700205CE7CE
:1052000050465AE7D9F8000000F46000B0F5800F6E
:1052100021D004DC58B1B0F5001F06D111E0B0F583
:10522000C00F3FD0B0F5000F1FD0002045E7106839
:10523000800104D506A8FFF755FC07983DE700203C
:105240003BE71068000104D503A8FFF72BFD039886
:1052500033E7002031E71068800004D56846FFF787
:1052600001FE009829E7002027E7306800F0405051
:105270001168490700D530B11168C90509D5B84290
:1052800007D1284619E71068C0F3C10024FA00F0DE
:1052900013E71168890303D5604501D118460CE76F
:1052A00000200AE7504608E7D9F8000000F0E06067
:1052B000B0F1007F21D004DC58B1B0F1807F06D17D
:1052C00011E0B0F1407F3FD0B0F1806F1FD00020DF
:1052D000F3E61068800104D506A8FFF703FC0798E1
:1052E000EBE60020E9E61068000104D503A8FFF70B
:1052F000D9FC0398E1E60020DFE61068800004D5C1
:105300006846FFF7AFFD0098D7E60020D5E6306885
:1053100000F040501168490700D530B11168C90547
:1053200009D5B84207D12846C7E61068C0F3C100C6
:1053300024FA00F0C1E61168890303D5604501D164
:105340001846BAE60020B8E65046B6E6D8F800009F
:1053500000F4E040B0F5005F21D004DC58B1B0F5B6
:10536000805F06D111E0B0F5405F3FD0B0F5804FCF
:105370001FD00020A1E61068800104D506A8FFF721
:10538000B1FB079899E6002097E61068000104D564
:1053900003A8FFF787FC03988FE600208DE61068CE
:1053A000800004D56846FFF75DFD009885E6002083
:1053B00083E6306800F040501168490700D530B1ED
:1053C0001168C90509D5B84207D1284675E61068A5
:1053D000C0F3C10024FA00F06FE61168890303D519
:1053E000604501D1184668E6002066E6504664E64E
:1053F000D8F8000000F4E020B0F5403F2DD015DCD7
:10540000E0B150451DD0704516D11068800022D5FE
:105410006846FFF727FD01984FE600005044025808
:105420000090D00340787D010080BB00B0F5802F54
:105430001ED0B0F5A02F22D000203EE600F07CFF69
:105440003BE61068000104D503A8FFF72BFC049885
:1054500033E6002031E600202FE61068400705D52E
:105460001068C0F3C10024FA00F026E6002024E60C
:105470001068C00501D528461FE600201DE610680B
:10548000800301D5184618E6002016E6D9F800007A
:1054900000F4403088B1504519D0704530D13068A3
:1054A00000F040501168490700D5D0B11168C90516
:1054B0001DD5B8421BD12846FFE51068000104D570
:1054C00003A8FFF7EFFB0398F7E50020F5E5106868
:1054D000800004D56846FFF7C5FC0298EDE5002082
:1054E000EBE51068C0F3C10024FA00F0E5E51168AF
:1054F000890303D5604501D11846DEE50020DCE5CF
:105500000020DAE5306800F4803048B1504513D10E
:10551000106800010ED503A8FFF7C4FB0598CCE581
:105520001068800104D506A8FFF7DCFA0798C4E5E7
:105530000020C2E50020C0E50020BEE5D9F800004B
:1055400000F0E040B0F1405F24D00CDC98B1B842EC
:1055500014D060450DD11068800019D56846FFF75A
:1055600081FC0198A9E5B0F1804F1ED0B0F1A04FA9
:1055700022D00020A1E5FFF7A3FA9EE51068000104
:1055800004D503A8FFF78EFB049896E5002094E568
:10559000002092E51068400705D51068C0F3C100EF
:1055A00024FA00F089E5002087E51068C00501D5E0
:1055B000284682E5002080E51068800301D5184662
:1055C0007BE5002079E5D8F8000000F0405058B1A4
:1055D000B84210D060451AD11068000115D503A853
:1055E000FFF760FB049868E51068800301D5184652
:1055F00063E5002061E51068800104D506A8FFF787
:1056000071FA079859E5002057E5002055E500207C
:1056100053E500002DE9FC5F044600250026F94F04
:105620002068DFF8E483C043010104F10800019021
:1056300004F1280000900DD4A06EB8B1B0F5801F21
:1056400019D0B0F5001F1CD0B0F5401F00D00125C7
:10565000EDB12E462088C043C00535D4A06D052885
:105660002FD2DFE800F01D22282F2F00386840F4E9
:1056700000303860ECE70198022104F04FFA05464B
:10568000E6E70098022104F0DBFA0546E0E7D8F8E7
:105690000000A16E20F440100843C8F80000D9E7CC
:1056A000386840F4003038600CE00198002104F0C4
:1056B00035FA054606E00098002104F0C1FA0546D7
:1056C00000E0012565B12E462088C043800518D42E
:1056D000E06D802831D00CDC20B340280ED126E0CC
:1056E000D8F80000A16D20F007000843C8F80000BA
:1056F000EAE7C02803D0B0F5807F00D0012515B3BC
:105700002E462088DFF80493C04340052DD4D4F8FA
:10571000A800B0F5800F43D01EDCA8B3B0F5001F81
:1057200020D137E0386840F400303860E7E701986E
:10573000002104F0F3F90546E1E70098002104F0A8
:105740007FFA0546DBE7D8F80000E16D20F4E07051
:105750000843C8F80000D4E7B0F5C00F03D0B0F597
:10576000000F00D001250DB32E462088C043000550
:105770002FD4D4F8AC00B0F1007F54D020DCE8B3D3
:10578000B0F1807F22D148E0FFE7386840F4003074
:105790003860E8E70198002104F0C0F90546E2E727
:1057A0000098002104F04CFA0546DCE7D9F8000027
:1057B000D4F8A81020F460000843C9F80000D4E72A
:1057C000B0F1407F03D0B0F1806F00D0012585B3E8
:1057D0002E462068C04380010AD4E06C30B1102806
:1057E00032D0202836D0302800D001258DB32E4667
:1057F0002088C043C00446D4206E00E008E0B0F525
:10580000005F5CD036DCA0B3B0F5805F38D150E0EB
:10581000386840F400303860D9E70198002104F07E
:105820007DF90546D3E70098002104F009FA054602
:10583000CDE7FFE7D9F80000D4F8AC1020F0E06025
:105840000843C9F80000C4E7386840F40030386005
:10585000CCE705E00198022104F060F90546C5E7B0
:105860006948001F0168E26C21F0300111430160BA
:10587000BEE719E0B0F5405F03D0B0F5804F00D02F
:10588000012515B32E462088C04380042FD4606EB6
:10589000B0F5403F29D021DC38B3B0F5803F38D097
:1058A000B0F5003F20D13AE0386840F4003038606D
:1058B000E7E70198002104F031F90546E1E7009897
:1058C000002104F0BDF90546DBE7D8F80000216EA1
:1058D00020F4E0400843C8F80000D4E7B0F5802F7A
:1058E00003D0B0F5A02F00D00125F5B12E462088B9
:1058F000C04340042BD4D4F8B000B0F1405F24D0B2
:105900001CDC10B3B0F1805F4ED0B0F1005F1BD152
:1059100051E00198012104F001F90546E5E70098FE
:10592000012104F08DF90546DFE7D8F80000616E2B
:1059300020F4E0200843C8F80000D8E7B0F1804F19
:1059400003D0B0F1A04F00D001259DB32E46208892
:10595000C04300040AD4206F30B1B0F1805F3CD066
:10596000B0F1005F3ED00125ADB32E462068C043A4
:10597000C0010AD4A06C30B101284DD0022850D00B
:10598000032800D001253DB32E462068DFF880B003
:10599000C043400261D41F48016841F48071016036
:1059A000FEF73CFD824652E00198012104F0B6F872
:1059B0000546CAE705E00098012104F041F90546D3
:1059C000C3E7D9F80000D4F8B01020F0E040084355
:1059D000C9F80000BBE70BE029E0386840F400306C
:1059E0003860C1E70198012104F098F80546BBE74B
:1059F000D8F80000216F20F040500843C8F800009C
:105A0000B4E700002C44025850440258584402584D
:105A10001044025800480258386840F4003038609A
:105A2000B1E70198022104F079F80546ABE7FE489A
:105A30000168A26C21F0030111430160A5E7FEF7A4
:105A4000EDFCA0EB0A00642801D9032503E0F74828
:105A50000068C005F3D53DB12E462078DFF8D0A30D
:105A6000C043C00755D065E0F1481C300068B4F869
:105A7000B41000F4407001F4407188420DD0EC483D
:105A80001C30016821F44071026842F480320260E7
:105A9000026822F4803202600160D4F8B400B0F5EC
:105AA000807F12D1FEF7BAFC824609E0FEF7B6FC11
:105AB000A0EB0A0141F28830814201D9032504E0BC
:105AC000DB481C3000688007F0D50DB12E46C4E7D6
:105AD000D4F8B400C0F3012103290FD0DBF8000093
